:020000040800F2
:1000000000000120150300086103000861030008D7
:10001000610300086103000861030008000000009C
:100020000000000000000000000000006103000864
:10003000610300080000000061030008610300087C
:100040006103000861030008610300086103000800
:1000500061030008610300086103000861030008F0
:1000600061030008610300086103000861030008E0
:1000700061030008610300086103000861030008D0
:10008000610300086103000861030008000000002C
:1000900000000000000000000000000061030008F4
:1000A00061030008610300086103000861030008A0
:1000B0006103000861030008610300086103000890
:1000C0006103000861030008610300086103000880
:1000D00061030008610300086103000800000000DC
:1000E00061030008610300086103000800000000CC
:1000F0000000000000000000000000006103000894
:1001000000000000610300086103000861030008AB
:1001100000000000000000000000000000000000DF
:10012000610300086103000861030008610300081F
:100130006103000800000000000000000000000053
:100140000000000000000000000000006103000843
:1001500061030008610300086103000861030008EF
:1001600061030008610300080000000000000000B7
:10017000000000000000000000000000000000007F
:100180000000000061030008000000000000000003
:0401900061030008FF
:1001940010B5054C237833B9044B13B10448AFF3BD
:1001A40000800123237010BD140000200000000013
:1001B4006403000808B5034B1BB103490348AFF3BC
:1001C400008008BD0000000018000020640300083F
:1001D40080B500AF00F005F800F052F800F062F8C6
:1001E400FCE780B400AF234B1B681B68214A1268EC
:1001F4005B0C5B0413601F4B1B681A681D4B1B6868
:1002040042F480321A6000BF1A4B1B681B68194BFA
:100214001A6800231360002BF6D1174B1B681A6869
:10022400154B1B6822F003021A60134B1B681A68F3
:10023400114B1B6842F001021A6000BF0E4B1B6891
:100244001B6803F00403042BF8D00C4B1B681A68DA
:100254000A4B1B6822F004021A60084B1B681A68D8
:10026400064B1B6842F004021A6000BFBD465DF8ED
:10027400047B7047000000200400002008000020D8
:1002840080B400AF064B1B681A68054B1B6842F02C
:1002940080621A6000BFBD465DF8047B704700BFF2
:1002A4000C00002080B400AF064B1B681A68054B95
:1002B4001B6822F400521A6000BFBD465DF8047B3F
:1002C400704700BF1000002070B50D4D0D4C641B2D
:1002D400A4100026A64209D10B4D0C4C00F040F8A6
:1002E400641BA4100026A64205D170BD55F8043B3A
:1002F40098470136EEE755F8043B98470136F2E794
:100304007C0300087C0300087C03000880030008C9
:10031400DFF830D00C480D490D4A002302E0D458D0
:10032400C4500433C4188C42F9D30A4A0A4C00233B
:1003340001E013600432A242FBD3FFF7C5FFFFF7CD
:1003440047FF704700000120000000201400002037
:10035400840300081400002030000020FEE70000A1
:10036400F8B500BFF8BC08BC9E467047F8B500BF9E
:08037400F8BC08BC9E4670476E
:04037C00B9010008BB
:0403800095010008DB
:100384000038024008380240303802400008024079
:040394001408024007
:0400000508000315D7
:00000001FF
