:020000040800F2
:100000000000012061030008AD030008AD030008F3
:10001000AD030008AD030008AD03000800000000B8
:10002000000000000000000000000000AD03000818
:10003000AD03000800000000AD030008AD03000898
:10004000AD030008AD030008AD030008AD030008D0
:10005000AD030008AD030008AD030008AD030008C0
:10006000AD030008AD030008AD030008AD030008B0
:10007000AD030008AD030008AD030008AD030008A0
:10008000AD030008AD030008AD0300080000000048
:10009000000000000000000000000000AD030008A8
:1000A000AD030008AD030008AD030008AD03000870
:1000B000AD030008AD030008AD030008AD03000860
:1000C000AD030008AD030008AD030008AD03000850
:1000D000AD030008AD030008AD03000800000000F8
:1000E000AD030008AD030008AD03000800000000E8
:1000F000000000000000000000000000AD03000848
:1001000000000000AD030008AD030008AD030008C7
:1001100000000000000000000000000000000000DF
:10012000AD030008AD030008AD030008AD030008EF
:10013000AD03000800000000000000000000000007
:10014000000000000000000000000000AD030008F7
:10015000AD030008AD030008AD030008AD030008BF
:10016000AD030008AD03000800000000000000001F
:10017000000000000000000000000000000000007F
:1001800000000000AD0300080000000000000000B7
:04019000AD030008B3
:1001940010B5054C237833B9044B13B10448AFF3BD
:1001A40000800123237010BD1C000020000000000B
:1001B400B003000808B5034B1BB103490348AFF370
:1001C400008008BD0000000020000020B0030008EB
:1001D40080B500AF00F028F800F068F800F080F86F
:1001E400FCE780B400AF0D4B1B681A680B4B1B680F
:1001F40042F005021A600A4B1B680A4A1A6000BFE3
:10020400064B1B681B6803F48033002BF8D000BF37
:1002140000BFBD465DF8047B704700BF140000209A
:10022400180000208FD0030080B400AF1C4B1B6863
:100234001A681B4B1B6822F480321A60184B1B6827
:100244001A68174B1B6842F480321A6000BF144BC3
:100254001B681B6803F40033002BF8D0114B1B6898
:100264001A68104B1B6822F003021A600D4B1B68BE
:100274001A680C4B1B6842F001021A6000BF094B5C
:100284001B681B68084B1B681A68074B1B6842F005
:1002940001021A6000BFBD465DF8047B704700BFD1
:1002A40000000020040000200800002080B400AFFB
:1002B4000A4B1B681A68094B1B6822F003021A6078
:1002C400064B1B681A68054B1B6842F001021A6052
:1002D40000BFBD465DF8047B704700BF0C000020E2
:1002E40080B500AF0A4B1B681A68094B1B6842F0C3
:1002F40001021A60FFF775FF054B1B681B68044B6E
:100304001B6800221A60FFF76CFF00BF80BD00BFAE
:100314001000002070B50D4D0D4C641BA410002678
:10032400A64209D10B4D0C4C00F040F8641BA410FC
:100334000026A64205D170BD55F8043B9847013606
:10034400EEE755F8043B98470136F2E7C803000886
:10035400C8030008C8030008CC030008DFF830D045
:100364000C480D490D4A002302E0D458C45004330C
:10037400C4188C42F9D30A4A0A4C002301E01360E2
:100384000432A242FBD3FFF7C5FFFFF721FF7047FA
:1003940000000120000000201C000020D003000801
:1003A4001C00002038000020FEE70000F8B500BF64
:1003B400F8BC08BC9E467047F8B500BFF8BC08BC42
:0403C4009E4670479A
:0403C800B90100086F
:0403CC00950100088F
:1003D0000038024008380240303802400000024035
:0C03E0001400024010E000E014E000E017
:04000005080003618B
:00000001FF
