:020000040800F2
:1000000000000120CD0300081904000819040008AD
:100010001904000819040008190400080000000071
:1000200000000000000000000000000019040008AB
:100030001904000800000000190400081904000851
:10004000190400081904000819040008190400081C
:10005000190400081904000819040008190400080C
:1000600019040008190400081904000819040008FC
:1000700019040008190400081904000819040008EC
:100080001904000819040008190400080000000001
:10009000000000000000000000000000190400083B
:1000A00019040008190400081904000819040008BC
:1000B00019040008190400081904000819040008AC
:1000C000190400081904000819040008190400089C
:1000D00019040008190400081904000800000000B1
:1000E00019040008190400081904000800000000A1
:1000F00000000000000000000000000019040008DB
:100100000000000019040008190400081904000880
:1001100000000000000000000000000000000000DF
:10012000190400081904000819040008190400083B
:10013000190400080000000000000000000000009A
:10014000000000000000000000000000190400088A
:10015000190400081904000819040008190400080B
:100160001904000819040008000000000000000045
:10017000000000000000000000000000000000007F
:10018000000000001904000800000000000000004A
:040190001904000846
:1001940010B5054C237833B9044B13B10448AFF3BD
:1001A40000800123237010BD2C00002000000000FB
:1001B4001C04000808B5034B1BB103490348AFF303
:1001C400008008BD00000000300000201C0400086E
:1001D40080B500AF00F005F800F052F800F062F8C6
:1001E400FCE780B400AF224B1B681A68204B1B68E5
:1001F40022F480321A601E4B1B681A681C4B1B6861
:1002040042F480321A6000BF194B1B681B68194BFB
:100214001B681A68174B1B6822F003021A60154BFF
:100224001B681A68134B1B6842F001021A6000BF76
:10023400104B1B681B68104B1B681A680E4B1B681D
:1002440022F001021A600C4B1B681A680A4B1B68E7
:1002540042F001021A60094B1B681A68074B1B68BD
:1002640042F400321A6000BFBD465DF8047B70475B
:100274000000002004000020080000200C000020E2
:1002840080B400AF064B1B681A68054B1B6842F02C
:1002940001021A6000BFBD465DF8047B704700BFD1
:1002A4001000002080B500AF0A4B1B681A68094B88
:1002B4001B6842F001021A6000F00EF8054B1B683F
:1002C4001B68044B1B6800221A6000F005F800BF8D
:1002D40080BD00BF1400002080B400AF234B1B6816
:1002E4001B68224B1B6800221A60204B1B681A688B
:1002F4001E4B1B6842F002021A601C4B1B681B68F1
:100304001A4B1B6800221A60184B1B681A68174B9B
:100314001B6842F080021A60154B1B6800221A60A9
:10032400144B1B684FF47A721A60134B1B6840F627
:10033400C3121A600D4B1B681A680C4B1B6842F001
:1003440001021A6000BF0D4B1B681B6803F0010318
:10035400002BF8D0094B1B681B68084B1B68002254
:100364001A6000BFBD465DF8047B7047180000208A
:1003740024000020280000201C0000202000002071
:1003840070B50D4D0D4C641BA4100026A64209D176
:100394000B4D0C4C00F040F8641BA4100026A64240
:1003A40005D170BD55F8043B98470136EEE755F882
:1003B400043B98470136F2E734040008340400088B
:1003C4003404000838040008DFF830D00C480D4924
:1003D4000D4A002302E0D458C4500433C4188C429C
:1003E400F9D30A4A0A4C002301E013600432A24202
:1003F400FBD3FFF7C5FFFFF7EBFE704700000120BA
:10040400000000202C0000203C0400082C000020E8
:1004140048000020FEE70000F8B500BFF8BC08BCA7
:100424009E467047F8B500BFF8BC08BC9E467047AE
:04043400B901000802
:040438009501000822
:10043C00003802400838024030380240443802404C
:10044C000000024014000240004401402C440140D2
:0C045C00104401402444014028440140A9
:04000005080003CD1F
:00000001FF
