:020000040800F2
:1000000000000120050600085106000851060008FE
:1000100051060008510600085106000800000000C3
:100020000000000000000000000000005106000871
:1000300051060008000000005106000851060008A3
:100040005106000851060008510600085106000834
:100050005106000851060008510600085106000824
:100060005106000851060008510600085106000814
:100070005106000851060008510600085106000804
:100080005106000851060008510600080000000053
:100090000000000000000000000000005106000801
:1000A00051060008510600085106000851060008D4
:1000B00051060008510600085106000851060008C4
:1000C00051060008510600085106000851060008B4
:1000D0005106000851060008510600080000000003
:1000E00051060008510600085106000800000000F3
:1000F00000000000000000000000000051060008A1
:1001000000000000510600085106000851060008D2
:1001100000000000000000000000000000000000DF
:100120005106000851060008510600085106000853
:100130005106000800000000000000000000000060
:100140000000000000000000000000005106000850
:100150005106000851060008510600085106000823
:1001600051060008510600080000000000000000D1
:10017000000000000000000000000000000000007F
:100180000000000051060008000000000000000010
:04019000510600080C
:1001940010B5054C237833B9044B13B10448AFF3BD
:1001A40000800123237010BD1C000020000000000B
:1001B4005406000808B5034B1BB103490348AFF3C9
:1001C400008008BD00000000200000205406000844
:1001D40080B500AF00F028F800F06CF800F08EF85D
:1001E400FCE780B400AF0D4B1B681A680B4B1B680F
:1001F40042F005021A600A4B1B680A4A1A6000BFE3
:10020400064B1B681B6803F48033002BF8D000BF37
:1002140000BFBD465DF8047B704700BF140000209A
:1002240018000020BFD8A70080B400AF1E4B1B6885
:100234001A681D4B1B6822F480321A601A4B1B6823
:100244001A68194B1B6842F480321A6000BF164BBF
:100254001B681B68154B1B681A68144B1B6822F03B
:1002640003021A60114B1B681A68104B1B6842F09A
:1002740001021A6000BF0D4B1B681B680C4B1B6806
:100284001A680B4B1B6822F001021A60084B1B68AA
:100294001A68074B1B6842F001021A6000BFBD4692
:1002A4005DF8047B704700BF0000002004000020BC
:1002B4000800002080B483B000AF00237B6011E00D
:1002C4007B685B003B600C4B1B681A6801213B6830
:1002D40001FA03F31946084B1B680A431A607B684A
:1002E40001337B607B68072BEADD00BF00BF0C375E
:1002F400BD465DF8047B70470C00002080B500AF5C
:10030400944B1B681A68934B1B6842F0C0021A6036
:10031400FFF767FF8F4B1B681B688E4B1B6800221F
:100324001A608C4B1B681A688A4B1B6842F0FF02E8
:100334001A60FFF756FF874B1B681B68854B1B68C9
:1003440000221A60834B1B681A68824B1B6842F0B8
:10035400F9021A60FFF745FF7E4B1B681B687D4B53
:100364001B6800221A607B4B1B681A68794B1B6858
:1003740042F0FF021A60FFF734FF764B1B681B68DC
:10038400744B1B6800221A60724B1B681A68714B0D
:100394001B6842F0A4021A60FFF723FF6D4B1B6831
:1003A4001B686C4B1B6800221A606A4B1B681A6836
:1003B400684B1B6842F0FF021A60FFF712FF654B9F
:1003C4001B681B68634B1B6800221A60614B1B6827
:1003D4001A68604B1B6842F0B0021A60FFF701FF15
:1003E4005C4B1B681B685B4B1B6800221A60594BF3
:1003F4001B681A68574B1B6842F0FF021A60FFF72C
:10040400F0FE544B1B681B68524B1B6800221A6099
:10041400504B1B681A684F4B1B6842F099021A60D4
:10042400FFF7DFFE4B4B1B681B684A4B1B6800221F
:100434001A60484B1B681A68464B1B6842F0FF025F
:100444001A60FFF7CEFE434B1B681B68414B1B68C9
:1004540000221A603F4B1B681A683E4B1B6842F02F
:1004640092021A60FFF7BDFE3A4B1B681B68394BBA
:100474001B6800221A60374B1B681A68354B1B68CF
:1004840042F0FF021A60FFF7ACFE324B1B681B6898
:10049400304B1B6800221A602E4B1B681A682D4BC8
:1004A4001B6842F082021A60FFF79BFE294B1B680F
:1004B4001B68284B1B6800221A60264B1B681A68AD
:1004C400244B1B6842F0FF021A60FFF78AFE214B9F
:1004D4001B681B681F4B1B6800221A601D4B1B689E
:1004E4001A681C4B1B6842F0F8021A60FFF779FE89
:1004F400184B1B681B68174B1B6800221A60154BAE
:100504001B681A68134B1B6842F0FF021A60FFF75E
:1005140068FE104B1B681B680E4B1B6800221A6098
:100524000C4B1B681A680B4B1B6842F080021A6064
:10053400FFF757FE074B1B681B68064B1B6800221E
:100544001A60044B1B681A68024B1B6842F0FF02D6
:100554001A6001E010000020FFF743FE154B1B68F2
:100564001B68144B1B6800221A60124B1B681A6824
:10057400104B1B6842F090021A60FFF732FE0D4BDD
:100584001B681B680B4B1B6800221A60094B1B6815
:100594001A68084B1B6842F0FF021A60FFF721FE3D
:1005A400044B1B681B68034B1B6800221A6000BFC6
:1005B40080BD00BF1000002070B50D4D0D4C641BB4
:1005C400A4100026A64209D10B4D0C4C00F040F8B3
:1005D400641BA4100026A64205D170BD55F8043B47
:1005E40098470136EEE755F8043B98470136F2E7A1
:1005F4006C0600086C0600086C060008700600080B
:10060400DFF830D00C480D490D4A002302E0D458DD
:10061400C4500433C4188C42F9D30A4A0A4C002348
:1006240001E013600432A242FBD3FFF7C5FFFFF7DA
:10063400CFFD704700000120000000201C000020B6
:10064400740600081C00002038000020FEE70000AB
:10065400F8B500BFF8BC08BC9E467047F8B500BFAB
:08066400F8BC08BC9E4670477B
:04066C00B9010008C8
:0406700095010008E8
:10067400003802400838024030380240000002408E
:0C0684001400024010E000E014E000E070
:0400000508000605E4
:00000001FF
