:020000040800F2
:100000000000012091030008DD030008DD03000863
:10001000DD030008DD030008DD0300080000000028
:10002000000000000000000000000000DD030008E8
:10003000DD03000800000000DD030008DD03000808
:10004000DD030008DD030008DD030008DD03000810
:10005000DD030008DD030008DD030008DD03000800
:10006000DD030008DD030008DD030008DD030008F0
:10007000DD030008DD030008DD030008DD030008E0
:10008000DD030008DD030008DD03000800000000B8
:10009000000000000000000000000000DD03000878
:1000A000DD030008DD030008DD030008DD030008B0
:1000B000DD030008DD030008DD030008DD030008A0
:1000C000DD030008DD030008DD030008DD03000890
:1000D000DD030008DD030008DD0300080000000068
:1000E000DD030008DD030008DD0300080000000058
:1000F000000000000000000000000000DD03000818
:1001000000000000DD030008DD030008DD03000837
:1001100000000000000000000000000000000000DF
:10012000DD030008DD030008DD030008DD0300082F
:10013000DD030008000000000000000000000000D7
:10014000000000000000000000000000DD030008C7
:10015000DD030008DD030008DD030008DD030008FF
:10016000DD030008DD0300080000000000000000BF
:10017000000000000000000000000000000000007F
:1001800000000000DD030008000000000000000087
:04019000DD03000883
:1001940010B5054C237833B9044B13B10448AFF3BD
:1001A40000800123237010BD2800002000000000FF
:1001B400E003000808B5034B1BB103490348AFF340
:1001C400008008BD000000002C000020E0030008AF
:1001D40080B500AF00F007F800F020F800F04AF80E
:1001E4000023184680BD80B400AF0A4B1B681A6810
:1001F400084B1B6842F001021A60074B1B681A681F
:10020400054B1B6842F010021A6000BFBD465DF842
:10021400047B7047000000200400002080B400AF7D
:10022400114B1B681A68104B1B6842F400221A60B9
:100234000E4B1B681A680D4B1B6842F400221A60AF
:100244000A4B1A68094B1B6812681A60084B1B6832
:100254001A68074B1B6842F070021A6000BFBD4663
:100264005DF8047B704700BF080000200C000020EC
:100274001000002080B400AF2D4B1B681B682C4A73
:10028400126823F4FF5323F01F031360284B1B68E9
:100294001A68274B1B6842F400521A60254B1B68EE
:1002A4001A68244B1B6842F400521A60224B1B68E4
:1002B4001A68214B1B6842F004021A601E4B1B682B
:1002C4001A681D4B1B6842F4D0621A60184B1B68F5
:1002D4001A68174B1B6842F008021A60144B1B681B
:1002E4001A68134B1B6842F0C0021A6000BF134B1C
:1002F4001B681B6803F08003002BF8D0104B1B68AD
:1003040054221A6000BF0D4B1B681B6803F04003A6
:10031400002BF8D0094B1B681A68084B1B6822F0A5
:1003240040021A6000BFBD465DF8047B704700BF01
:1003340014000020180000201C00002024000020CD
:100344002000002070B50D4D0D4C641BA410002638
:10035400A64209D10B4D0C4C00F040F8641BA410CC
:100364000026A64205D170BD55F8043B98470136D6
:10037400EEE755F8043B98470136F2E7F803000826
:10038400F8030008F8030008FC030008DFF830D085
:100394000C480D490D4A002302E0D458C4500433DC
:1003A400C4188C42F9D30A4A0A4C002301E01360B2
:1003B4000432A242FBD3FFF7C5FFFFF709FF7047E2
:1003C4000000012000000020280000200004000894
:1003D4002800002044000020FEE70000F8B500BF1C
:1003E400F8BC08BC9E467047F8B500BFF8BC08BC12
:0403F4009E4670476A
:0403F800B90100083F
:0403FC00950100085F
:1004000030380240443802400000024008000240F8
:10041000240002400C10014010100140081001405F
:0804200004100140001001402E
:04000005080003915B
:00000001FF
