:020000040800F2
:1000000000000120110300085D0300085D030008E3
:100010005D0300085D0300085D03000800000000A8
:100020000000000000000000000000005D03000868
:100030005D030008000000005D0300085D03000888
:100040005D0300085D0300085D0300085D03000810
:100050005D0300085D0300085D0300085D03000800
:100060005D0300085D0300085D0300085D030008F0
:100070005D0300085D0300085D0300085D030008E0
:100080005D0300085D0300085D0300080000000038
:100090000000000000000000000000005D030008F8
:1000A0005D0300085D0300085D0300085D030008B0
:1000B0005D0300085D0300085D0300085D030008A0
:1000C0005D0300085D0300085D0300085D03000890
:1000D0005D0300085D0300085D03000800000000E8
:1000E0005D0300085D0300085D03000800000000D8
:1000F0000000000000000000000000005D03000898
:10010000000000005D0300085D0300085D030008B7
:1001100000000000000000000000000000000000DF
:100120005D0300085D0300085D0300085D0300082F
:100130005D03000800000000000000000000000057
:100140000000000000000000000000005D03000847
:100150005D0300085D0300085D0300085D030008FF
:100160005D0300085D0300080000000000000000BF
:10017000000000000000000000000000000000007F
:10018000000000005D030008000000000000000007
:040190005D03000803
:1001940010B5054C237833B9044B13B10448AFF3BD
:1001A40000800123237010BD140000200000000013
:1001B4006003000808B5034B1BB103490348AFF3C0
:1001C400008008BD00000000180000206003000843
:1001D40080B500AF00F005F800F050F800F060F8CA
:1001E400FCE780B400AF224B1B681A68204B1B68E5
:1001F40002F07E421A601E4B1B681A681C4B1B6877
:1002040042F080721A6000BF194B1B681B68194BBF
:100214001B681A68174B1B6842F001021A60154BE1
:100224001B681A68134B1B6842F004021A60114BD6
:100234001B681A680F4B1B6842F400721A600D4B5E
:100244001A680C4B1B6812681A600A4B1A68094B2F
:100254001B6812681A60084B1B681A68064B1B68F7
:1002640042F001021A6000BFBD465DF8047B70478E
:1002740000000020040000200800002080B400AF2B
:10028400064B1B681A68054B1B6842F001021A6092
:1002940000BFBD465DF8047B704700BF0C00002022
:1002A40080B400AF064B1B681A68054B1B6842F00C
:1002B40001021A6000BFBD465DF8047B704700BFB1
:1002C4001000002070B50D4D0D4C641BA4100026C9
:1002D400A64209D10B4D0C4C00F040F8641BA4104D
:1002E4000026A64205D170BD55F8043B9847013657
:1002F400EEE755F8043B98470136F2E77803000827
:1003040078030008780300087C030008DFF830D085
:100314000C480D490D4A002302E0D458C45004335C
:10032400C4188C42F9D30A4A0A4C002301E0136032
:100334000432A242FBD3FFF7C5FFFFF749FF704722
:1003440000000120000000201400002080030008A9
:100354001400002030000020FEE70000F8B500BFC4
:10036400F8BC08BC9E467047F8B500BFF8BC08BC92
:040374009E467047EA
:04037800B9010008BF
:04037C0095010008DF
:100380000038024004380240303802400000024089
:040390001400024013
:0400000508000311DB
:00000001FF
