:020000040800F2
:1000000000000120E9030008350400083504000859
:10001000350400083504000835040008000000001D
:10002000000000000000000000000000350400088F
:1000300035040008000000003504000835040008FD
:1000400035040008350400083504000835040008AC
:10005000350400083504000835040008350400089C
:10006000350400083504000835040008350400088C
:10007000350400083504000835040008350400087C
:1000800035040008350400083504000800000000AD
:10009000000000000000000000000000350400081F
:1000A000350400083504000835040008350400084C
:1000B000350400083504000835040008350400083C
:1000C000350400083504000835040008350400082C
:1000D000350400083504000835040008000000005D
:1000E000350400083504000835040008000000004D
:1000F00000000000000000000000000035040008BF
:10010000000000003504000835040008350400082C
:1001100000000000000000000000000000000000DF
:1001200035040008350400083504000835040008CB
:10013000350400080000000000000000000000007E
:10014000000000000000000000000000350400086E
:10015000350400083504000835040008350400089B
:10016000350400083504000800000000000000000D
:10017000000000000000000000000000000000007F
:10018000000000003504000800000000000000002E
:04019000350400082A
:1001940010B5054C237833B9044B13B10448AFF3BD
:1001A40000800123237010BD000000200000000027
:1001B4003804000808B5034B1BB103490348AFF3E7
:1001C400008008BD0000000004000020380400087E
:1001D40080B582B000AF00F00FF800F025F800F011
:1001E4008BF80346FB71FB79184600F051F80023A5
:1001F40018460837BD4680BD80B400AF084B1B6865
:10020400074A43F001031360064B1B68054A43F099
:100214001003136000BFBD465DF8047B704700BF48
:10022400303802404438024080B400AF154B1B689C
:10023400144A43F400231360124B1B68114A43F41D
:1002440000131360104B1B680F4A43F40023136020
:100254000D4B0D4A1B6813600B4B1B680A4A43F491
:1002640000131360084B084A1B681360074B1B6894
:10027400064A43F4EE63136000BFBD465DF8047B99
:10028400704700BF00000240080002402400024002
:1002940080B483B000AF0346FB71144B1B68134A50
:1002A40043F008031360114B1B68104A43F0C0036A
:1002B400136000BF0E4B1B6803F08003002BF9D0C2
:1002C4000C4AFB79136000BF094B1B6803F0400321
:1002D400002BF9D0064B1B68054A23F0400313603A
:1002E40000BF0C37BD465DF8047B70470C1001401D
:1002F400001001400410014080B483B000AF224BD1
:100304001B68214A23F4FF5323F01F0313601E4B81
:100314001B681D4A43F4005313601C4B1B681B4AA3
:1003240043F4005313601A4B1B68194A43F0040347
:100334001360174B1B68164A43F4D0631360124BC7
:100344001B68114A23F0070313600F4B1B680E4A06
:1003540043F00403136000BF0E4B1B6803F020033B
:10036400002BF9D00C4B1B687B600B4B1B680A4AB3
:1003740023F03F0313607B68DBB218460C37BD469D
:100384005DF8047B704700BF0C1001401010014061
:1003940008100140001001400410014070B50D4DDB
:1003A4000D4C641BA4100026A64209D10B4D0C4C25
:1003B40000F040F8641BA4100026A64205D170BDCD
:1003C40055F8043B98470136EEE755F8043B984747
:1003D4000136F2E7500400085004000850040008F5
:1003E40054040008DFF830D00C480D490D4A0023AE
:1003F40002E0D458C4500433C4188C42F9D30A4AD6
:100404000A4C002301E013600432A242FBD3FFF73D
:10041400C5FFFFF7DDFE704700000120000000204B
:100424000000002058040008000000201C000020E8
:10043400FEE70000F8B500BFF8BC08BC9E46704754
:0C044400F8B500BFF8BC08BC9E4670472D
:04045000B9010008E6
:040454009501000806
:04000005080003E903
:00000001FF
