:020000040800F2
:1000000000000120B1030008FD030008FD03000803
:10001000FD030008FD030008FD03000800000000C8
:10002000000000000000000000000000FD030008C8
:10003000FD03000800000000FD030008FD030008A8
:10004000FD030008FD030008FD030008FD03000890
:10005000FD030008FD030008FD030008FD03000880
:10006000FD030008FD030008FD030008FD03000870
:10007000FD030008FD030008FD030008FD03000860
:10008000FD030008FD030008FD0300080000000058
:10009000000000000000000000000000FD03000858
:1000A000FD030008FD030008FD030008FD03000830
:1000B000FD030008FD030008FD030008FD03000820
:1000C000FD030008FD030008FD030008FD03000810
:1000D000FD030008FD030008FD0300080000000008
:1000E000FD030008FD030008FD03000800000000F8
:1000F000000000000000000000000000FD030008F8
:1001000000000000FD030008FD030008FD030008D7
:1001100000000000000000000000000000000000DF
:10012000FD030008FD030008FD030008FD030008AF
:10013000FD030008000000000000000000000000B7
:10014000000000000000000000000000FD030008A7
:10015000FD030008FD030008FD030008FD0300087F
:10016000FD030008FD03000800000000000000007F
:10017000000000000000000000000000000000007F
:1001800000000000FD030008000000000000000067
:04019000FD03000863
:1001940010B5054C237833B9044B13B10448AFF3BD
:1001A40000800123237010BD3C00002000000000EB
:1001B4000004000808B5034B1BB103490348AFF31F
:1001C400008008BD0000000040000020000400087A
:1001D40080B500AF00F028F800F06CF800F08EF85D
:1001E400FCE780B400AF0D4B1B681A680B4B1B680F
:1001F40042F005021A600A4B1B680A4A1A6000BFE3
:10020400064B1B681B6803F48033002BF8D000BF37
:1002140000BFBD465DF8047B704700BF140000209A
:100224001800002097AB020080B400AF1E4B1B687F
:100234001A681D4B1B6822F480321A601A4B1B6823
:100244001A68194B1B6842F480321A6000BF164BBF
:100254001B681B68154B1B681A68144B1B6822F03B
:1002640003021A60114B1B681A68104B1B6842F09A
:1002740001021A6000BF0D4B1B681B680C4B1B6806
:100284001A680B4B1B6822F001021A60084B1B68AA
:100294001A68074B1B6842F001021A6000BFBD4692
:1002A4005DF8047B704700BF0000002004000020BC
:1002B4000800002080B483B000AF00237B6011E00D
:1002C4007B685B003B600C4B1B681A6801213B6830
:1002D40001FA03F31946084B1B680A431A607B684A
:1002E40001337B607B68032BEADD00BF00BF0C3762
:1002F400BD465DF8047B70470C00002080B582B0D9
:1003040000AF00237B6021E000233B6018E0134B27
:100314001B681968124A3B6852F823200F4B1B686C
:100324000A431A60FFF75DFF0C4B1B681B680B4BFD
:100334001B6800221A60FFF754FF3B6801333B60DF
:100344003B68062BE3DD7B6801337B607B68312BE4
:10035400DADD00BF00BF0837BD4680BD10000020B5
:100364001C00002070B50D4D0D4C641BA41000261C
:10037400A64209D10B4D0C4C00F040F8641BA410AC
:100384000026A64205D170BD55F8043B98470136B6
:10039400EEE755F8043B98470136F2E718040008E5
:1003A40018040008180400081C040008DFF830D002
:1003B4000C480D490D4A002302E0D458C4500433BC
:1003C400C4188C42F9D30A4A0A4C002301E0136092
:1003D4000432A242FBD3FFF7C5FFFFF7F9FE7047D3
:1003E40000000120000000203C0000202004000840
:1003F4003C00002058000020FEE70000F8B500BFD4
:10040400F8BC08BC9E467047F8B500BFF8BC08BCF1
:040414009E46704749
:04041800B90100081E
:04041C00950100083E
:1004200000380240083802403038024000000240E4
:100430001400024010E000E014E000E007000000BB
:10044000030000000B000000090000000D00000088
:0C0450000C0000000E0000000600000080
:04000005080003B13B
:00000001FF
