:020000040800F2
:1000000000000120B9090008050A0008050A0008D7
:10001000050A0008050A0008050A0008000000009B
:10002000000000000000000000000000050A0008B9
:10003000050A000800000000050A0008050A00087B
:10004000050A0008050A0008050A0008050A000854
:10005000050A0008050A0008050A0008050A000844
:10006000050A0008050A0008050A0008050A000834
:10007000050A0008050A0008050A0008050A000824
:10008000050A0008050A0008050A0008000000002B
:10009000000000000000000000000000050A000849
:1000A000050A0008050A0008050A0008050A0008F4
:1000B000050A0008050A0008050A0008050A0008E4
:1000C000050A0008050A0008050A0008050A0008D4
:1000D000050A0008050A0008050A000800000000DB
:1000E000050A0008050A0008050A000800000000CB
:1000F000000000000000000000000000050A0008E9
:1001000000000000050A0008050A0008050A0008AA
:1001100000000000000000000000000000000000DF
:10012000050A0008050A0008050A0008050A000873
:10013000050A0008000000000000000000000000A8
:10014000000000000000000000000000050A000898
:10015000050A0008050A0008050A0008050A000843
:10016000050A0008050A0008000000000000000061
:10017000000000000000000000000000000000007F
:1001800000000000050A0008000000000000000058
:04019000050A000854
:1001940010B5054C237833B9044B13B10448AFF3BD
:1001A40000800123237010BD1C000020000000000B
:1001B400080A000808B5034B1BB103490348AFF311
:1001C400008008BD0000000020000020080A00088C
:1001D40080B500AF00F005F800F05EF800F08EF88E
:1001E400FCE780B400AF294B1B681A68274B1B68D7
:1001F40022F480321A60254B1B681A68234B1B6853
:1002040042F480321A6000BF204B1B681B681F4BEE
:100214001A6800231360002BF6D11D4B1B681A6863
:100224001B4B1B6822F003021A60194B1B681A68E7
:10023400174B1B6842F001021A6000BF144B1B6885
:100244001B68144B1B681A68124B1B6822F00102CE
:100254001A60104B1B681A680E4B1B6842F00102AF
:100264001A600C4B1B681A680A4B1B6822F00202C6
:100274001A60084B1B681A68064B1B6842F002029E
:100284001A6000BFBD465DF8047B70470000002083
:10029400040000200800002080B483B000AF0023D5
:1002A4007B601DE07B685B003B60124B1B681A6837
:1002B40001213B6801FA03F319460E4B1B680A43FC
:1002C4001A600D4B1B681A6801213B6801FA03F39D
:1002D4001946094B1B680A431A607B6801337B602B
:1002E4007B68132BDEDD00BF00BF0C37BD465DF815
:1002F400047B70470C0000201000002080B49FB0E5
:1003040000AF8D4B1B681B688B4B1B6800221A6067
:100314008A4B1B681B68894B1B6800221A600023E8
:100324007B6720E0844B1B681A68834B1B6842F090
:1003340001021A60814B1B681A6801217B6F01FA64
:1003440003F319467D4B1B680A431A6000233B677D
:1003540002E03B6F01333B673B6F794A9342F8DD20
:100364007B6F01337B677B6F082BDBDD724B1B6874
:100374001B68714B1B6800221A60704B1B681B685A
:100384006E4B1B6800221A600023FB6620E06B4B57
:100394001B681A68694B1B6842F400721A60664B4A
:1003A4001B681A680121FB6E01FA03F31946624BBC
:1003B4001B680A431A600023BB6602E0BB6E01336C
:1003C400BB66BB6E5E4A9342F8DDFB6E0133FB668F
:1003D400FB6E072BDBDD584B1B681B68564B1B68F9
:1003E40000221A60554B1B681B68544B1B68002283
:1003F4001A6008237B6620E04F4B1B681A684E4B3B
:100404001B6842F080021A604C4B1B681A68012179
:100414007B6E01FA03F31946484B1B680A431A60C2
:1004240000233B6602E03B6E01333B663B6E444A6D
:100434009342F8DD7B6E013B7B667B6E002BDBDC3D
:100444003D4B1B681B683C4B1B6800221A603B4BEE
:100454001B681B68394B1B6800221A600723FB6565
:1004640020E0364B1B681A68344B1B6842F00102CB
:100474001A60314B1B681A680121FB6D01FA03F302
:1004840019462D4B1B680A431A600023BB6502E022
:10049400BB6D0133BB65BB6D294A9342F8DDFB6D2F
:1004A400013BFB65FB6D002BDBDC234B1B681B68EE
:1004B400214B1B6800221A60204B1B681B681F4BD2
:1004C4001B6800221A6001237B6520E01A4B1B681D
:1004D4001A68194B1B6842F002021A60174B1B681A
:1004E4001A6801217B6D01FA03F31946134B1B684B
:1004F4000A431A6000233B6502E03B6D01333B6510
:100504003B6D0F4A9342F8DD7B6D01337B657B6D58
:10051400072BDBDD084B1B681B68074B1B6800229D
:100524001A60064B1B681B68044B1B6800221A6088
:100534000123FB6427E000BF140000201800002002
:10054400DF9304008F4B1B681A688E4B1B6842F4C0
:1005540080721A608C4B1B681A680121FB6C01FACB
:1005640003F31946884B1B680A431A600023BB64D3
:1005740002E0BB6C0133BB64BB6C844A9342F8DD7C
:10058400FB6C0133FB64FB6C052BDBDD7E4B1B68D2
:100594001B687D4B1B6800221A607A4B1B681B6822
:1005A400784B1B6800221A6008237B6420E0764B9A
:1005B4001B681A68744B1B6842F040021A60714B46
:1005C4001B681A6801217B6C01FA03F319466D4B11
:1005D4001B680A431A6000233B6402E03B6C01334E
:1005E4003B643B6C694A9342F8DD7B6C013B7B6462
:1005F4007B6C012BDBDC644B1B681B68624B1B6848
:1006040000221A605F4B1B681B685E4B1B6800224C
:100614001A600623FB6320E05A4B1B681A68594B87
:100624001B6842F002021A60574B1B681A680121CA
:10063400FB6B01FA03F31946534B1B680A431A6018
:100644000023BB6302E0BB6B0133BB63BB6B4F4A4C
:100654009342F8DDFB6B013BFB63FB6B012BDBDCA3
:10066400494B1B681B68484B1B6800221A60454BAA
:100674001B681B68434B1B6800221A6001237B63C1
:1006840020E0414B1B681A683F4B1B6842F0040290
:100694001A603C4B1B681A6801217B6B01FA03F357
:1006A4001946384B1B680A431A6000233B6302E077
:1006B4003B6B01333B633B6B344A9342F8DD7B6B0A
:1006C40001337B637B6B062BDBDD2F4B1B681B68C5
:1006D4002D4B1B6800221A602A4B1B681B68294B90
:1006E4001B6800221A600223FB6220E0254B1B6872
:1006F4001A68244B1B6842F080021A60224B1B6864
:100704001A680121FB6A01FA03F319461E4B1B68A0
:100714000A431A600023BB6202E0BB6A0133BB6276
:10072400BB6A1A4A9342F8DDFB6A0133FB62FB6A37
:10073400042BDBDD144B1B681B68134B1B68002266
:100744001A60104B1B681B680E4B1B6800221A6052
:1007540007237B6226E00C4B1B681A680A4B1B6854
:1007640042F020021A60074B1B681A6801217B6A59
:1007740001FA03F31946034B1B680A431A6000236A
:100784003B6208E01800002014000020DF930400FE
:100794003B6A01333B623B6A714A9342F8DD7B6AF0
:1007A400013B7B627B6A022BD5DC6E4B1B681B68AA
:1007B4006C4B1B6800221A606B4B1B681B686A4BEE
:1007C4001B6800221A600523FB6120E0664B1B684E
:1007D4001A68654B1B6842F004021A60614B1B687F
:1007E4001A680121FB6901FA03F319465D4B1B6882
:1007F4000A431A600023BB6102E0BB690133BB6199
:10080400BB69574A9342F8DDFB69013BFB61FB6915
:10081400032BDBDC534B1B681B68524B1B68002209
:100824001A60514B1B681B684F4B1B6800221A60EF
:1008340002237B6120E04B4B1B681A68494B1B6801
:1008440042F008021A60484B1B681A6801217B6950
:1008540001FA03F31946444B1B680A431A60002348
:100864003B6102E03B6901333B613B693C4A934293
:10087400F8DD7B6901337B617B69052BDBDD394B5B
:100884001B681B68374B1B6800221A60364B1B68B9
:100894001B68354B1B6800221A600323FB6020E0B1
:1008A400314B1B681A68304B1B6842F040021A60D7
:1008B4002C4B1B681A680121FB6801FA03F31946E3
:1008C400284B1B680A431A600023BB6002E0BB6824
:1008D4000133BB60BB68224A9342F8DDFB680133F5
:1008E400FB60FB68042BDBDD1E4B1B681B681D4B88
:1008F4001B6800221A601C4B1B681B681A4B1B6880
:1009040000221A6004237B6020E0174B1B681A68DE
:10091400154B1B6842F020021A60124B1B681A68C0
:1009240001217B6801FA03F319460E4B1B680A4345
:100934001A6000233B6002E03B6801333B603B6884
:10094400074A9342F8DD7B6801337B607B68042BA4
:10095400DBDD00BF00BF7C37BD465DF8047B70471C
:10096400DF930400140000201800002070B50D4D22
:100974000D4C641BA4100026A64209D10B4D0C4C4F
:1009840000F040F8641BA4100026A64205D170BDF7
:1009940055F8043B98470136EEE755F8043B984771
:1009A4000136F2E7200A0008200A0008200A00089D
:1009B400240A0008DFF830D00C480D490D4A002302
:1009C40002E0D458C4500433C4188C42F9D30A4A00
:1009D4000A4C002301E013600432A242FBD3FFF768
:1009E400C5FFFFF7F5FB7047000001200000002061
:1009F4001C000020280A00081C00002038000020E9
:100A0400FEE70000F8B500BFF8BC08BC9E4670477E
:0C0A1400F8B500BFF8BC08BC9E46704757
:040A2000B901000810
:040A24009501000830
:100A280000380240083802403038024000000240D6
:0C0A3800000402401400024014040240BC
:04000005080009B92D
:00000001FF
